:100000000C942A000C94A4010C9434000C94340039
:100010000C9434000C9434000C9434000C94340090
:100020000C9434000C9434000C9434000C94340080
:100030000C9434000C9434000C9434000C94340070
:100040000C9434000C9434000C9434000C94340060
:100050000C94340011241FBECFE5D8E0DEBFCDBF25
:100060000E94CB010C94DF010C9400006130D1F5AB
:100070008330B9F0843020F4823009F071C006C0BA
:100080008430D1F0853009F06BC021C02BB381E002
:1000900090E002C0880F991F4A95E2F7282B2BBBEE
:1000A000089528B381E090E002C0880F991F4A9517
:1000B000E2F7282B28BB089525B381E090E002C029
:1000C000880F991F4A95E2F7282B25BB089522B384
:1000D00081E090E002C0880F991F4A95E2F7282B33
:1000E00022BB0895662309F03BC08330B1F0843011
:1000F00018F48230A9F505C08430D9F0853081F537
:1001000024C02BB381E090E002C0880F991F4A956C
:10011000E2F7809582238BBB089528B381E090E0BD
:1001200002C0880F991F4A95E2F78095822388BB09
:10013000089525B381E090E002C0880F991F4A9589
:10014000E2F78095822385BB089522B381E090E099
:1001500002C0880F991F4A95E2F78095822382BBDF
:100160000895442309F03EC08330C1F0843020F468
:10017000823009F070C006C08430E1F0853009F0AB
:100180006AC024C02AB381E090E002C0880F991FA2
:100190006A95E2F7809582238ABB089527B381E0B0
:1001A00090E002C0880F991F6A95E2F7809582233C
:1001B00087BB089524B381E090E002C0880F991FA7
:1001C0006A95E2F78095822384BB089521B381E08C
:1001D00090E002C0880F991F6A95E2F7809582230C
:1001E00081BB08954130B9F58330A9F0843018F40B
:1001F000823089F505C08430C9F0853061F521C0B1
:100200002AB381E090E002C0880F991F6A95E2F757
:10021000282B2ABB089527B381E090E002C0880F05
:10022000991F6A95E2F7282B27BB089524B381E034
:1002300090E002C0880F991F6A95E2F7282B24BB33
:10024000089521B381E090E002C0880F991F6A955C
:10025000E2F7282B21BB0895FA01833061F0843046
:1002600018F48230E9F405C0843039F08530C1F4E7
:100270000EC089B303C086B301C083B390E002C04F
:10028000959587956A95E2F781708083089580B38C
:1002900090E002C0959587956A95E2F7817080831A
:1002A0000895833061F0843018F4823069F405C019
:1002B000843039F0853041F406C06BBB089568BBCB
:1002C000089565BB089562BB0895833061F0843062
:1002D00018F4823069F405C0843039F0853041F477
:1002E00006C06ABB089567BB089564BB089561BBEF
:1002F0000895FB01833061F0843018F4823079F482
:1003000005C0843039F0853051F407C089B303C08B
:1003100086B301C083B38083089580B3808308953A
:1003200085B7826085BF85B78E7F85BF8BB78064B8
:100330008BBF0895089508958FB780688FBF089583
:100340008FB78F778FBF08951F920F920FB60F92BE
:1003500011242F933F934F935F936F937F938F93CA
:100360009F93AF93BF93EF93FF9382E061E042E0EE
:100370000E943600FF91EF91BF91AF919F918F91B5
:100380007F916F915F914F913F912F910F900FBE91
:100390000F901F90189582E062E041E00E94B1004A
:1003A00085E062E040E00E94B10085E061E042E06B
:1003B0000E9436000E949C010E949001FFCFF89499
:0203C000FFCF6D
:00000001FF
