:100000000C942A000C943F000C943F000C943F0089
:100010000C943F000C943F000C943F000C943F0064
:100020000C943F000C943F000C943F000C943F0054
:100030000C943F000C943F000C943F000C943F0044
:100040000C943F000C943F000C943F000C943F0034
:100050000C943F0011241FBECFE5D8E0DEBFCDBF1A
:1000600010E0A0E6B0E0E6EFF3E002C005900D92EC
:10007000A037B107D9F70E94A2010C94F9010C94A2
:1000800000008FEF8ABB17BA84BB11BA1BBA18BA2B
:1000900015BA12BA08956130D1F58330B9F08430C1
:1000A00020F4823009F071C006C08430D1F0853070
:1000B00009F06BC021C02BB381E090E002C0880F33
:1000C000991F4A95E2F7282B2BBB089528B381E0AE
:1000D00090E002C0880F991F4A95E2F7282B28BBB1
:1000E000089525B381E090E002C0880F991F4A95DA
:1000F000E2F7282B25BB089522B381E090E002C0EF
:10010000880F991F4A95E2F7282B22BB0895662392
:1001100009F03BC08330B1F0843018F48230A9F587
:1001200005C08430D9F0853081F524C02BB381E03F
:1001300090E002C0880F991F4A95E2F780958223CC
:100140008BBB089528B381E090E002C0880F991F0F
:100150004A95E2F78095822388BB089525B381E014
:1001600090E002C0880F991F4A95E2F7809582239C
:1001700085BB089522B381E090E002C0880F991FEB
:100180004A95E2F78095822382BB0895FA01833075
:1001900061F0843018F48230E9F405C0843039F01D
:1001A0008530C1F40EC089B303C086B301C083B3E8
:1001B00090E002C0959587956A95E2F781708083FB
:1001C000089580B390E002C0959587956A95E2F70F
:1001D000817080830895833061F0843018F4823018
:1001E00069F405C0843039F0853041F406C06BBB3A
:1001F000089568BB089565BB089562BB0895FB012F
:10020000833061F0843018F4823079F405C0843092
:1002100039F0853051F407C089B303C086B301C0FB
:1002200083B38083089580B3808308951F93182F2C
:1002300084E061E040E00E944B0084E060E041E047
:100240000E944B0082E0612F0E94EB0084E061E09D
:1002500042E00E944B0080E797E10197F1F784E0CC
:1002600060E042E00E944B001F9108951F93182FF9
:1002700084E060E040E00E944B0084E060E041E008
:100280000E944B0082E0612F0E94EB0084E061E05D
:1002900042E00E944B0080E797E10197F1F784E08C
:1002A00060E042E00E944B001F910895882329F0EE
:1002B000813011F060E001C0605C862F80580E94A0
:1002C00036010895DF92EF92FF920F931F93CF9321
:1002D000DF938C01F62EE42ED22E862F880F880F06
:1002E000880F805C0E943601C0E0D0E0F801EC0F7E
:1002F000FD1F80810E9416012196C830D105B1F7FB
:100300008E2D6D2D0E9456018F2D0E941601DF91BA
:10031000CF911F910F91FF90EF90DF90089580E9AA
:1003200091E028EC30E0F9013197F1F70197D9F726
:100330008FE30E9436018CE00E94360181E00E942A
:1003400036010895CF93DF930E9441000E948F01F0
:1003500081E067E00E94560189E40E94160184E56D
:100360000E94160189E40E94160188E893E128ECB6
:1003700030E0F9013197F1F70197D9F7C8ECD0E0F7
:1003800080E690E061E041E02DE00E94620180E1C2
:1003900097E2FE013197F1F70197D9F781E06DE01F
:1003A0000E94560180E20E94160188EE93E0FE0151
:1003B0003197F1F70197D9F788E690E061E041E0E5
:1003C0002EE00E94620180E197E2FE013197F1F791
:1003D0000197D9F781E06EE00E94560180E20E9409
:1003E000160188EE93E0FE013197F1F70197D9F7F6
:0603F000C7CFF894FFCF17
:1003F6000E0E0E140E050A0A0E0E0E050E140A0A2D
:00000001FF
