:100000000C942A000C943F000C943F000C943F0089
:100010000C943F000C943F000C943F000C943F0064
:100020000C943F000C943F000C943F000C943F0054
:100030000C943F000C943F000C943F000C943F0044
:100040000C943F000C943F000C943F000C943F0034
:100050000C943F0011241FBECFE5D8E0DEBFCDBF1A
:1000600010E0A0E6B0E0E2EEF4E002C005900D92F0
:10007000AC36B107D9F70E9437020C946F020C948A
:1000800000001F93182F84E061E040E00E94DD0033
:1000900084E060E041E00E94DD0082E0612F0E9488
:1000A000F80184E061E042E00E94DD0080EA9FE028
:1000B0000197F1F784E060E042E00E94DD001F91CB
:1000C0000895CF93DF93EC0102C00E944100899113
:1000D0008823D9F7DF91CF9108951F93182F84E0DB
:1000E00060E040E00E94DD0084E060E041E00E94CA
:1000F000DD0082E0612F0E94F80184E061E042E0CF
:100100000E94DD0080EA9FE00197F1F784E060E063
:1001100042E00E94DD001F910895882329F081307C
:1001200011F060E001C0605C862F80580E946D0075
:100130000895DF92EF92FF920F931F93CF93DF9377
:100140008C01F62EE42ED22E862F880F880F880F72
:10015000805C0E946D00C0E0D0E0F801EC0FFD1F54
:1001600080810E9441002196C830D105B1F78E2DC3
:100170006D2D0E948D008F2D0E944100DF91CF9147
:100180001F910F91FF90EF90DF90089581E00E9402
:100190006D00089580E991E028EC30E0F901319795
:1001A000F1F70197D9F788E30E946D008CE00E9477
:1001B0006D0081E00E946D0008956130D1F58330BB
:1001C000B9F0843020F4823009F071C006C0843068
:1001D000D1F0853009F06BC021C02BB381E090E0F5
:1001E00002C0880F991F4A95E2F7282B2BBB089570
:1001F00028B381E090E002C0880F991F4A95E2F78A
:10020000282B28BB089525B381E090E002C0880F19
:10021000991F4A95E2F7282B25BB089522B381E068
:1002200090E002C0880F991F4A95E2F7282B22BB65
:100230000895662309F03BC08330B1F0843018F490
:100240008230A9F505C08430D9F0853081F524C00D
:100250002BB381E090E002C0880F991F4A95E2F726
:10026000809582238BBB089528B381E090E002C083
:10027000880F991F4A95E2F78095822388BB0895DD
:1002800025B381E090E002C0880F991F4A95E2F7FC
:100290008095822385BB089522B381E090E002C05F
:1002A000880F991F4A95E2F78095822382BB0895B3
:1002B000442309F03EC08330C1F0843020F4823002
:1002C00009F070C006C08430E1F0853009F06AC0E2
:1002D00024C02AB381E090E002C0880F991F6A957C
:1002E000E2F7809582238ABB089527B381E090E0EE
:1002F00002C0880F991F6A95E2F78095822387BB19
:10030000089524B381E090E002C0880F991F6A9598
:10031000E2F78095822384BB089521B381E090E0C9
:1003200002C0880F991F6A95E2F78095822381BBEE
:1003300008954130B9F58330A9F0843018F4823043
:1003400089F505C08430C9F0853061F521C02AB334
:1003500081E090E002C0880F991F6A95E2F7282B90
:100360002ABB089527B381E090E002C0880F991F4F
:100370006A95E2F7282B27BB089524B381E090E02B
:1003800002C0880F991F6A95E2F7282B24BB0895B5
:1003900021B381E090E002C0880F991F6A95E2F7CF
:1003A000282B21BB0895FA01833061F0843018F4C2
:1003B0008230E9F405C0843039F08530C1F40EC0D4
:1003C00089B303C086B301C083B390E002C09595A2
:1003D00087956A95E2F781708083089580B390E0F5
:1003E00002C0959587956A95E2F78170808308959C
:1003F000833061F0843018F4823069F405C08430B1
:1004000039F0853041F406C06BBB089568BB089590
:1004100065BB089562BB0895833061F0843018F4A1
:10042000823069F405C0843039F0853041F406C06B
:100430006ABB089567BB089564BB089561BB0895C6
:10044000FB01833061F0843018F4823079F405C008
:10045000843039F0853051F407C089B303C086B3C6
:1004600001C083B38083089580B380830895DF93B0
:10047000CF93CDB7DEB728970FB6F894DEBF0FBE87
:10048000CDBF82E06FEF0E940C0284E060E041E0AB
:100490000E94580184E061E041E00E94580184E03C
:1004A00062E041E00E9458010E94CA0080E690E0AC
:1004B0000E946100DE011196E4E6F0E088E0019020
:1004C0000D928150E1F7CE01019661E041E022E01A
:1004D0000E94990082E690E00E946100FFCFF894AC
:0204E000FFCF4C
:0C04E20041006200070511151105011F03
:00000001FF
